:020000041000EA
:1000000000B5324B212058609868022188439860DF
:10001000D860186158612E4B002199600221596106
:100020000121F02299502B49196001219960352056
:1000300000F044F80222904214D00621196600F024
:1000400034F8196E01211966002018661A6600F04E
:100050002CF8196E196E196E052000F02FF8012189
:100060000842F9D1002199601B49196000215960AB
:100070001A491B48016001219960EB211966A021F2
:10008000196600F012F800219960164914480160C1
:100090000121996001BC002800D000471248134993
:1000A000086003C880F30888084703B5996A0420EC
:1000B0000142FBD001200142F8D103BD02B5186610
:1000C0001866FFF7F2FF186E186E02BD00000240BE
:1000D000000000180000070000035F00212200005C
:1000E000F4000018222000A00001001008ED00E03C
:1000F00000000000000000000000000074B24E7A12
:1001000000200420F7010010C3010010C5010010F9
:10011000C1010010C1010010C1010010C101001097
:10012000C1010010C1010010C1010010C701001081
:10013000C1010010C1010010C9010010CB01001065
:10014000CD010010CD010010CD010010CD01001037
:10015000CD010010CD010010CD010010CD01001027
:10016000CD010010CD010010CD010010CD01001017
:10017000CD010010CD010010CD010010CD01001007
:10018000CD010010CD010010CD010010CD010010F7
:10019000CD010010CD010010CD010010CD010010E7
:1001A000CD010010CD010010CD010010CD010010D7
:1001B000CD010010CD010010CD010010CD010010C7
:1001C00000BE00BE00BE00BE00BE00BE00F04BF888
:1001D000103800BEF2EB88715C5A05107C5A05108D
:1001E0003402001090A31AE700202149086006C8D5
:1001F00081F3088810471F48006800282FD10DA4FC
:100200000ECC002902D000F012F8F9E71A491B4A77
:10021000002000E001C19142FCD1194988471949E9
:1002200088471949884700BEFDE701C901C29A42C3
:10023000FBD370477C5A0510C0000020886702205D
:1002400044C10710000004200000042044C107102E
:1002500000100420001004200000000070470B482C
:1002600004F064FA0047EFF30580C0B27047000065
:1002700008ED00E0000000D0886702200CA70220F3
:10028000A52B00102D090010C92C00105756000096
:1002900006005250ABB3605348990010060052500C
:1002A000861C030258990010060052505422A29D49
:1002B0006099001005005250DE65F46844C10710D3
:1002C000F8B5C04606480749091A8B10C90FC91866
:1002D00010B5491003D0044B002B00D0984710BD37
:1002E000886702208867022000000000054B10B5D7
:1002F000002B03D00449054800E000BFFFF7E2FFF0
:1003000010BDC04600000000E49E0220D8910010FD
:10031000A022F0B54546DE4657464E46214B920098
:10032000E0B59D18204A83B09446204AFF209046AD
:1003300098441F4B1F4C01931F4B9B4661461F4B1C
:10034000EA180B68019F1E0A0640BE5D7601B146A1
:100350001E0C0640A65D0340F602B2464E465746C6
:10036000E35C3E4333431BB25B4515D0138002323E
:1003700004319542E5D1A0239B009946A023DB00E0
:100380004D449946CC44A845D8D103B0F0BCBB46F7
:10039000B246A946A046F0BD02320431AA42D0D1ED
:1003A000E9E7C046400600205CAA0010805A02001F
:1003B00040050020400400201FF8FFFF80FDFFFFE4
:1003C000F0B5DE4657464E464546E0B59B463A4BAD
:1003D00087B01E68109F8E4201DD5E4506DC0F234C
:1003E0009A46B2448A4508DADA4506DA07B0F0BC24
:1003F000BB46B246A946A046F0BD151AEB17ED184C
:100400005D405B465B1ADC171B196340012499466B
:100410000394EB1A824248DD01240494594541DAE1
:100420004C466442A44601960292019A8A421FDC1D
:100430008A451DDB8C1AA4003A1905923A5F824264
:1004400007DDC643F61732000240904646463A1989
:10045000168002343A1990463C5F844208DAA022A2
:1004600004005200904201DB4024FF3442461480D5
:10047000029A904213D05C00A44504DA4A469B1AC3
:10048000039A90464044A542CFDD049A5B199046FA
:10049000019A41448A42CBDD029A9042EBD1594500
:1004A000E9D1A3E7023C0494BAE7023C0394012497
:1004B00004945945B4DBF5E7FCA60220F0B5DE460E
:1004C00057464E4645469A469146E0B58846060050
:1004D000504C504D95B0049405950694079508949A
:1004E00009950A940B950C940D950E940F95109404
:1004F00011951294139520AB04AC1F8853460094B9
:10050000FFF75EFF484651461F9B1E9A0094FFF777
:1005100057FF434632001F991E980094FFF750FF83
:100520003D4B3E049C46A0233E435B01210000203E
:1005300099466446029604E04130FF300431484554
:1005400061D00223CD5E0023CA5E9542F4DDAB1A72
:100550009A46012353449C4613185E00B346A046B6
:10056000D844464603930123760876421E405346FC
:10057000B046052B21D9002E02D05B460132E7524E
:10058000464663469B1B9C466646039B7608B60020
:100590004344B0465B00E3189844464603969046B1
:1005A000029E039A40C39A42FCD1634602960126FA
:1005B0004246B343D2189C45BED083185B00E75235
:1005C000531C9D42B8DBC3185B00E752931C9D424D
:1005D000B2DBC3185B00E752D31C9D42ACDBC318EF
:1005E0005B00E752131D9D42A6DBC3185B0005327A
:1005F000E7529542A0DB821841305200FF30A752EB
:10060000043148459DD115B0F0BCBB46B246A94661
:10061000A046F0BD4101FFFFEC7002206F4BF0B52A
:10062000DE469B4657464E46454600235A46E0B5B1
:1006300013606B4B87B000229B5E00AF04003B61F0
:10064000002B00DCC2E0674B674A1B680021FB609F
:10065000664B7A601B689946654B48461B68C846DE
:100660003B60644B9C4600237B6111E0002D07DD5D
:100670005B467D696A1C1A606B007D687A6159531C
:10068000022291463A6901310330CC448A423BDD73
:10069000FA68002AECD0057846786A00521975008D
:1006A000AD196D00665F65190223ED5EB146AA467D
:1006B000867852007500AD196D0066190223F65E4A
:1006C0005346F61ABE60A65E4B46F61ABB68A218E1
:1006D0005E430223D25E5346D21A655F4B46ED1A43
:1006E00063465543751BEE17AA1972401A803B6882
:1006F000002BBBD1002DBBDB022291463A690131B0
:100700000330CC448A42C3DC69467B69C1465A1E29
:1007100098009246C21DD208D2008A1A9546EC462D
:10072000002B53D0304A66469046110002006244C6
:100730003A614A4699467A610A887B695000801876
:100740001D186A78AD78934652005A445200A21898
:100750000423D25E7B699346185C02314200121872
:100760005200A2180423D05E6A0052195200A21847
:100770000423D25E584480183A6901C6B242DBD1E4
:1007800000224B46914652464146002A1EDD6246F3
:100790000C00484616681568B54209DD16606646C5
:1007A00035602688B3460E8826805E460E802E0071
:1007B0000130043202349842EDDB012290460332CC
:1007C000C14490460231C444CA45E0DCBD4607B08E
:1007D000F0BCBB46B246A946A046F0BDE09E022052
:1007E00000A70220406F022084A10220049F022063
:1007F000FC9E0220009D0220F0B5DE4657464E4684
:100800004546E0B53F4B04001B688BB0002B72DD02
:100810003D4A5B00126891463C4A126806923C4A87
:100820009046434407933B4B09933B4B08932DE081
:100830003A4903F0ADFF43109A46BF00E319022284
:100840009A5EB600A1190223C95EA65F0592E25F17
:10085000334F344BB4463E5C185C53464001F602BD
:100860000643F85CAD00304380B202906019022369
:10087000C05E0190605F059B00906046FFF71EFE22
:1008800002239C46079BE044984534D043464946A2
:100890001A8853009A188E5C4A4457789578069ABD
:1008A000002A0ADD089A9B5A1802C01A1E4B984269
:1008B000BEDD7F23FF209A46BFE7BA00B600A1182D
:1008C0000227CF5FA25EA1190220095EA05F099EE8
:1008D000AD0036689B5B0293631902269B5F019310
:1008E000635F00933B00FFF7E9FD02239C46079BF3
:1008F000E0449845CAD10BB0F0BCBB46B246A9460D
:10090000A046F0BDE09E0220049F0220F49C02203D
:1009100084A10220009F0220009D0220504600007A
:100920004004002040050020FF4F4600F0B5DE46A1
:100930004E46454657460023E0B5E34EA5B0192084
:100940003360199600F044FE0C2000F041FED024E4
:100950008025802324065B01AD0465626362A56186
:1009600000F0CAFD656105F00BF9FA20400001F0C6
:1009700043FD532005F008F8D44B18000C9300F009
:1009800069FAFFF7C5FC00F05DFD00F005FCD04CF6
:100990001A9404F0C3FD2060662000F0FDFA306078
:1009A000FA20400001F028FD1E24732004F0ECFF23
:1009B000013C0A2001F020FD002CF6D1C54BA027F8
:1009C0001B93C54BBF001C93C44B1D93C44B149386
:1009D000C44B0993C44B1593C44B1693C44B179344
:1009E000C44B1893C44B0593C44B0A93C44B019357
:1009F000C44B0B93C44B0793C44B0893C44B0E9347
:100A0000C44B0F93C44B1093C44B1193C44B12931C
:100A1000C44B1393C44B0D93C44B0693D023802235
:100A20001B0692045A61FFF773FC01231B9A0A9973
:100A300013601C9A13601D9A5D331380149B099AEE
:100A40001A60AE23159A1380169B179A1A60B84B3A
:100A5000189A1360B423059A13600A68B4339A4253
:100A600000DC04E1683AFF3A53000A609B18B422A4
:100A70005200934203DB693BFF3B9342FBDA592B65
:100A800000DC01E1B32B00DCDFE18722520093425E
:100A900000DBD3E1019A94466344B43B1B785B428C
:100AA0009A00D3181801C01AFF21800003F070FECD
:100AB0000B9B96301B6804901A005A3200D4E6E073
:100AC000B42149005218FBD4592A00DCB2E1B32A00
:100AD00000DCADE1872149008A4200DBEBE00199AF
:100AE0008C466244B43A127852429246002B00DBA4
:100AF000D7E0B42252009B18FBD4592B00DC94E1C0
:100B0000B32B00DC8FE187225200934200DB83E1AC
:100B1000019A94466344B43B1D786D42079B099E3D
:100B20009846089B9B465346AA461D000022B35E8A
:100B30000221725E18000293534691460422B45E6D
:100B400068436343FF21C01803F022FE414602B20E
:100B50000A8049460802081AFF21039203F018FE92
:100B600001B2894641464B464B80534602986C433E
:100B70005843201A03026F49C01A03F009FE03000C
:100B80004146C8331BB28B802D33FF331900049BC1
:100B900069489C46614403F0FBFD0400674B0398E1
:100BA0009C4660436421604403F0F2FD5B4618807C
:100BB0004846634B60439C466421604403F0E8FD73
:100BC0005B46588006239C46023BE0449C465D4BB6
:100BD0000636E3449E42A9D10798FFF71FFD0C9B00
:100BE0001E009A460023B046994602930E9B029A35
:100BF00055491A60A0220F9B920094461800604449
:100C00001E001C00050002001800A0239B019C464A
:100C10006644030002C39342FCD1A0229200944692
:100C200060449A18B042F4D10898FFF7E5FD029AA3
:100C3000504613069B1A9B009B1AA0229B0152014F
:100C4000D31A9B464E4641490023E25A8A4200D0BD
:100C5000C2520233BB42F8D1A0239B009C464136CE
:100C6000FF362C006044B34572D06544ECE7013296
:100C700053000A609B1800D4F9E6B42252009B1876
:100C8000FBD4592B00DDFDE6019AD35C08E7B421C3
:100C900049008A4200DA17E7693AFF3A8A42FBDAEA
:100CA00012E7B4225200934200DA26E7693BFF3B89
:100CB0009342FBDA21E7B42149008A1A01998A5C40
:100CC0005242924612E7C046E470022040060020DD
:100CD000E0700220FC9E0220406F022002A702204A
:100CE000F0A602206494001000A70220049F0220B6
:100CF00058920010F49C022078A102206CA30220DC
:100D0000FC91001074A1022090A302203C9F0220BD
:100D1000FCA60220EC700220D8910010E491001093
:100D2000F0910010F49100101C970010F891001041
:100D3000B036000001FE000050460000B23E000048
:100D4000122F0000989600101FF81FF81FF80000DF
:100D5000A02252019446A0229201E1449446029BB3
:100D6000E24410330293F02B00D03FE7059C0B9D2B
:100D700023682A68181D2060B424911C4646296007
:100D80006400A14202DD673AFF3A2A60B4225200B1
:100D9000904203DD059A653BFF3B1360199B186881
:100DA00004F0DEFB02000B001FA8109903F078FC92
:100DB0001FA800F069F81A9B186804F0D1FB0B001B
:100DC000020011991FA803F06BFC1FA800F05CF84B
:100DD000129804F029FE96239B029C46139B0C9CC0
:100DE00098460D9D64443188404604F0BDFE0236AD
:100DF000280004F019FEA642F5D132240698013CE1
:100E000004F012FE002CF9D1D02380221B0692049C
:100E10009A6100F055F801E6B4225200D31A019A03
:100E2000D55C6D427AE6B422D31A019AD55C75E698
:100E3000B4218A1A01998A5C924657E6B42252007C
:100E4000D31A019AD35C5B422AE6B422D31A019AE0
:100E5000D35C25E60022A02100B5084B83B01A60C0
:100E6000074B49001A60074BF0320093002307F04C
:100E70007DFC412007F09CFC03B000BDF4A60220DD
:100E8000F8A602200A90000030B5F825084C0200B0
:100E9000084883B02D02218800880195064D074B34
:100EA000009507F0BBFC23681433236003B030BD0A
:100EB000F8A60220F4A602201FF80000205F0220FE
:100EC0000022014B1A607047F8A60220F0B5CE460A
:100ED000474680B5022083B004F0ACFB2B4B0600E4
:100EE00099466B46DD1DD0231B0688249846202793
:100EF0004346012229002C7025489F6108F05CF9C7
:100F0000642001F079FA022332000021204808F021
:100F100023F943465F61707833780002184304F088
:100F2000FDFA4B46023401C3E4B299468E2CDFD160
:100F3000184B20279946D0231B069846434601228A
:100F400029002C7012489F6108F036F9642001F0E6
:100F500053FA0223320000210D4808F0FDF8434601
:100F60005F61707833780002184304F0D7FA4B467B
:100F7000023401C3E4B29946A02CDFD1300004F062
:100F80006BFB03B0C0BCB946B046F0BD84A30220E1
:100F900000C00340189F0220F0B5DE4657464E467B
:100FA0004546E0B56C4B87B01B8805AE3380002307
:100FB000D0242025B370694B240604AA138004A909
:100FC00002228346A561664808F0F6F801206561B3
:100FD00001F012FA634B62489A46524604AB1A80FB
:100FE00019000222A56108F0E7F80120656101F00F
:100FF00003FA002004F030FBFA2304AA137004A9BA
:1010000001225748A56108F0D7F8642001F0F4F9EF
:10101000320003230021524808F09EF865613078C1
:10102000B3780004184303F0BFFE00224E4B03F0D8
:101030004AFE03F001FF04F093FA4C4B06001868D7
:101040000F00994604F08CFA002200900191484B61
:10105000300039000296039703F035FE00220600A7
:101060000F0000980199434B03F02DFE02000B0086
:101070003000390003F0F7FD4B46060058680F00BA
:1010800004F06EFA02000B003000390003F01BFE82
:1010900003F0D2FE0022804602980399364B03F0FB
:1010A00012FE002206000F0000980199334B03F056
:1010B0000AFE02000B003000390003F0D4FD0200EC
:1010C0000B0003F000FE4B46060098680F0004F08A
:1010D00047FA02000B003000390003F0F4FD03F082
:1010E000ABFE274B04AA138004A90222061CA561AB
:1010F0001B4808F061F80120656101F07DF9524656
:1011000004AB1A80190002221548A56108F054F8B2
:101110000120656101F070F9311C404604F0E0F9EE
:10112000184904F0E0F9184B18605B46662B0BD1A8
:1011300004F016FA154A164B03F0C5FD0022154BB4
:1011400003F09AFD03F078FE07B0F0BCBB46B24650
:10115000A946A046F0BDC046989600107442000013
:1011600000C0034075A0FFFF0000B03F84A3022031
:101170000000103F0000503F0000E03E0000203F14
:10118000744300000000A04570A30220CDCCCCCC5D
:10119000CCCCFC3F00004040F0B5DE4657464E4602
:1011A0004546E0B5994B87B01B8804AA938000237D
:1011B0009371F7331370D0231B06994620239B4667
:1011C0004B465A469A61924B04A99A4618001F3A18
:1011D00007F0F2FF642001F00FF905AA03230021B4
:1011E000504607F0B9FF5A464B46FC215A6104AB02
:1011F0001B7989050193874B186804F088F98649A3
:1012000004F06BF9011C041C04F081F9834A516954
:10121000904604F07CF9E021890504F078F904F0A7
:101220009FF9424606000F00201C116904F06FF977
:1012300004F096F902000B0003F01EFD0B00020003
:101240003900300003F018FD42460600D0680F0058
:1012500004F086F90022724B03F035FD02900391F1
:101260003900300003F0E8FD04F07AF900226D4BFC
:1012700003F029FD0B0002000298039903F0FCFC27
:10128000424606000F00201C916804F040F9211C22
:1012900004F03DF9D821890504F039F94246051CCE
:1012A0005168201C04F033F9011C281C04F018F9C3
:1012B000D821890504F02BF904F052F9FC2300220F
:1012C0009B0503F000FD584B002203F0D5FC42467D
:1012D000040010680D0004F043F902000B00200028
:1012E000290003F0F0FC0290039104AA5079019BBD
:1012F00000021B0418439379184303F055FD0022A4
:101300004A4B03F0E0FC03F097FD011C9320C0055D
:1013100004F0E3F804F024F904000D003000390073
:1013200003F08AFD04F01CF90022414B03F0CBFCD2
:1013300002000B002000290003F095FC00223D4B29
:1013400003F0C1FC04000D000298039903F074FD42
:1013500004F006F902000B002000290003F095FCC0
:1013600003F06AFD4346041C196A04F0D0F8211CFE
:1013700004F0CDF8C021890504F0C9F84346051CE6
:10138000D969201C04F0C3F8E021890504F0BFF8F6
:10139000011C281C04F0A4F84346996904F0A0F845
:1013A000F621890504F0B3F8211C04F099F8224BCA
:1013B00004AA13804B465A4604A9041C9A6150465D
:1013C0001E3A07F0F9FE4B465A4601205A6101F0D9
:1013D00013F81A4B04AA13804B465A4604A99A6183
:1013E00050461E3A07F0E8FE4B465A4601205A6125
:1013F00001F002F81249201C04F075F807B0F0BCA7
:10140000BB46B246A946A046F0BDC046989600101D
:1014100000C0034070A3022000007A47189F0220FA
:101420000000F0400000D03F0000F03F0000B03F5F
:101430000000303F006AB8407443000075A0FFFF11
:101440000000C84270B5274E82B004F099FB30000E
:10145000254906F0FBFF0121022000F0A1F801213F
:10146000032000F09DF80121042000F099F8D02419
:101470000520202500F0ACF86A461C4B2406656266
:1014800001A96561300093800222A56107F094FEF6
:101490000120656100F0B0FF6A46154B01A99380F9
:1014A00030000222A56107F087FE0120656100F08F
:1014B000A3FF6A460F4B01A9938030000222A56169
:1014C00007F07AFE0120656100F096FF01230022FB
:1014D00000213000A56107F03FFE6561FFF7F6FCD3
:1014E00002B070BD00C00340801A060060B6FFFF66
:1014F0007443000075A0FFFFF8B50421102000F030
:101500004FF80421112000F04BF80421122000F0C4
:1015100047F80421132000F043F8184B00241A6800
:10152000012319009143164A164F1160164A174EAF
:101530001268174D9343174A13603B68164963407E
:101540001B041B0C33603A6823045A40120C12042B
:1015500032602A68642062401204120C0A602A6811
:10156000013453401B0C1B040B60002100F02CFFC6
:101570000A4B9C42E1D10020F8BDC0460000054066
:10158000001005400C000540140005400C100540FB
:10159000200005401410054020100540881300006D
:1015A000094A10B594464024830063441A68C00079
:1015B0006240803414408022520113431C60034B6C
:1015C0009C466044416010BD04C0014000400140A1
:1015D0000123D0228340120693629361094A40217D
:1015E0009446830063441A68C0004A408031114029
:1015F0008022520113431960034B9C46052360442B
:101600004360704704C001400040014070B5EFF3F3
:10161000108C72B60D4D2B68002BFCD0BFF35F8F82
:101620000724CB08C618C05C01230C40A3401C0053
:101630000440034207D118433070BFF35F8F2C6022
:101640008CF3108870BD100001F040FB2C0100D01D
:10165000F8B54746CE46884680B5EFF3108C72B693
:10166000214D2C68002CFCD0BFF35F8F9A422CD800
:10167000D4080727055D061901241740BC402C42F9
:101680001FD007210127894609E0D408055D061906
:101690004C4639001440A1400C00294211D00132BF
:1016A0009342F2D201204042BFF35F8F00220E4BE3
:1016B0001A608CF3108800280FDBC0BCB946B04616
:1016C000F8BD254310003570EEE7BFF35F8F0023B0
:1016D0002B608CF31088012040424346002BECD055
:1016E000089801F0F3FAC0462C0100D0024B1868AC
:1016F0008007C00F7047C04600C006400021044B61
:10170000044ABFF35F8F02C39342FAD17047C046C9
:10171000000100D0800100D0044A1078431CDBB2E5
:10172000172B00D9102313707047C046405E02206B
:1017300010B5064B064C82B00100009318221F23FF
:101740002000FFF785FF02B010BDC0469C96001038
:101750004470022001238340002904D0034A13600F
:10176000034A13607047034A1360FBE780E200E01E
:1017700000E100E080E100E001238340014A1360C2
:101780007047C04600E200E0084B10309B688000C4
:10179000C358002B07D0064A00209B1A2F229A42DA
:1017A0004041C0B270470020FCE7C04600ED00E0B9
:1017B000445E0220024B10309B688000C058704786
:1017C00000ED00E070B50D00EFF3108672B60F4A21
:1017D0001368002BFCD0BFF35F8F0D4B10309B685C
:1017E00084001B590B4A934203D09D4201D001F063
:1017F00085FA074B9B681D51BFF35F8FBFF35F8F67
:101800000022024B1A6086F3108870BD240100D0BC
:1018100000ED00E0CD010010F0B557464E46DE4623
:101820004546E0B585B0060001911700EFF3108B37
:1018300072B6664A1368002BFCD0BFF35F8F002599
:10184000634B5D579A46002D00DAA3E06B00614CB4
:1018500002935B199B009846A146C1444B465246F1
:101860009B79103613705C4BB2009B6800929958BC
:101870000B1B2F2B34D9594B994200D0A3E0029B6C
:1018800042469C46564B6544AD006353554B02326D
:10189000A218043B9B1A1B05534A5B0D65191343A1
:1018A0006B80524B0121AB80FF23AB71019BEF7129
:1018B000AB604B460B431900474B009A9B6899500D
:1018C000BFF35F8FBFF35F8F0022404B1A608BF333
:1018D000108805B0F0BCBB46B246A946A046F0BD94
:1018E00001200A008243D379BB422FD845464E4699
:1018F00013003F491B1B5B415943090D384B635390
:10190000384B02356519043B5B1B1B05364D5B0DDF
:101910002B4373800426B446E044131F44441B1B2E
:101920001B055B0D1D434B46997101999D80996084
:101930004946DF712F4B01431360BDE75800C018C3
:1019400080002018C679BE422AD902000623D35649
:10195000002BF3DA101D8246BD20000203900426FE
:10196000504676424E44361A3005400D844666464F
:101970001D48957106439680029A94466544AA00D4
:10198000A4181C4AA3712260019B039AE771A280EC
:10199000A36091E701F0B2F9002553465D5755E782
:1019A000101D824690884005001584464046D44468
:1019B000664604302018301AE0260005400D360235
:1019C00030430390CBE701F099F958E7240100D0A8
:1019D00008A70220445E022000ED00E0CD010010C7
:1019E00000A1FFFF745E022000E0FFFF00BDFFFFCB
:1019F000AAAA000001488047F0B5DE4657464E4689
:101A00004546E0B50C0083B0EFF3108A72B65A4A2F
:101A10001368002BFCD0BFF35F8F102291468144E6
:101A20004A46564B96009B689D59554B98469D4299
:101A300005D0A54216D0534FEB1B2F2B14D94F4B7B
:101A40009B689D51BFF35F8FBFF35F8F00224A4BAE
:101A50001A608AF3108803B0F0BCBB46B246A946B0
:101A6000A046F0BD1D00EAE7012383409B465A468D
:101A7000454B1B681A4000925A46444B1A60BFF30C
:101A80005F8FFEF7F0FB0190002803D0814501D065
:101A900001F034F901232A009A4393689C4208D14B
:101AA0005FE04B005B189B00FB189968A14211D0C6
:101AB0001A00062151560029F3DA009B002B05D0AD
:101AC0005A46334B1A60304B1A60B8E75A462F4BD0
:101AD0001A60B4E706215956002921DB4A00501844
:101AE00080003C188046A0689860E079D871062094
:101AF00020569871002824DBA488F81A6405241560
:101B000044440019E0240005400D2402204398803D
:101B1000204B521818789200BA1890711970CCE7BF
:101B20000199002910D1FF3191711B499180194908
:101B30000A789A71194ADB1B5B415A43120D0A70ED
:101B4000BBE7BD200002E2E7154A1649D21A083A5F
:101B50005002400D01439980134952080A43DA802C
:101B6000ABE70621515613000029B7DA019A002A83
:101B7000EAD14546DBE7C046240100D000ED00E095
:101B8000CD010010445E022000E100E080E100E0B1
:101B900080E200E008A7022000BDFFFFAAAA000023
:101BA0007E5E022000F0FFFF00F8FFFFF8B5012580
:101BB00004000543FEF757FBEFF3108C72B6214A81
:101BC0001368002BFCD0BFF35F8F1F4E2100B76856
:101BD0001E4A1F4B891A49414B431B0D59B28300C2
:101BE000F858A8421CD00623D3568B421CD012238F
:101BF000D3568B4222D01E23D3568B4220D02A2389
:101C0000D35603208B4210D0124B1A781970A27150
:101C1000BFF35F8F00220B4B1A608CF31088F8BD66
:101C2000B2680D48D050EFE7002043001B189B001E
:101C3000D218FF239371094B9380E5E70120F4E765
:101C40000220F2E7240100D000ED00E0445E022013
:101C5000AAAA000008A70220CD01001000BDFFFFC6
:101C6000054B064A1360064A136053609360D360C5
:101C700013615361936170478080808000E400E0CD
:101C800004E400E0D02200B51206084B0100106801
:101C900083B01818064B002200930523FFF7D8FCE9
:101CA000002801DB1F23181A03B000BDECA6022098
:101CB000B8960010024B9C46614489000160704751
:101CC0004000003483680B4810B584466144624488
:101CD0001201090159189B185C684A680120944256
:101CE00001D802D00020C0B210BD1A680B689A4219
:101CF000F9D8F7E7FFFFFF0F0A4B1968EFF31080E1
:101D000072B60A68002AFCD0BFF35F8F1B68BFF36E
:101D10005F8F00221A6080F3108840BF00200021EE
:101D20007047C04680A10220F8B5574645464E464A
:101D3000DE46E0B599460CAB1C780DAB1B7807006E
:101D400090469A460568002C44D1AC7B002C3BD0D1
:101D5000660029683619033E89194B78AB73002B4E
:101D600000D1EB7300238B704B700B702E4BE2187D
:101D7000BB6812019B1842461A604A465A600A9A8A
:101D80009A600B9ADA6000238B704B700B706B7B40
:101D90009B46002B32D022005946A8686B689847B2
:101DA00000281DD05B46584629685B005B448E19AD
:101DB000033BB070CA18CB5C002B00D073705B463D
:101DC00014706B735C451AD0F0BCBB46B246A94692
:101DD000A046F8BD660029683619033E8919C5E793
:101DE0005B465B002A685B44033BD3189C709119E7
:101DF000925D002A00D05A705B460B706C734246AD
:101E00004B46387D00F03CFC051E02D05346002BAB
:101E100004D00E9B002BD7D01D70D5E72100386869
:101E200000F056FEF5E7C046FFFFFF0FF0B5DE46B7
:101E30004E46574645460023E0B58DB00A936B4B9E
:101E40008200D3580B90994600239B464B4607933C
:101E500000F0B6FB079C06000F006268EFF31085E8
:101E600072B61368002BFCD022000794BFF35F8F7B
:101E70002468637B9946002B66D092685C4B904641
:101E80004B441B01984443461A685B6810001900D4
:101E9000801BB94100295EDD0B9800F0F1FB0023A7
:101EA0000026984600279A46079C6368BFF35F8F19
:101EB0005A461A6085F310885346002B08D1002833
:101EC000C6D10DB0F0BCBB46B246A946A046F0BD97
:101ED0000A9B414618024B461843D0470890099187
:101EE0006268EFF3108572B61368002BFCD007947C
:101EF000BFF35F8F0899099A002A47DB114303D08B
:101F0000079B1B69002B5CD1079B1B68D97B0029B1
:101F100006D01A684800411852184946033A5170D1
:101F20004A46DA734B46079A013BD168CA5C0132D4
:101F3000CA545B46079A13615368BFF35F8F5A46D2
:101F40001A6085F3108883E700230026984600274F
:101F50009A460020A8E7002901D100289CD1002141
:101F6000200000F037FD43461E685F689B68079AB3
:101F70009A464346DB689846D3684B44013B1B783E
:101F80000A931B020343136100208DE72369002B92
:101F9000BAD033003C005B1A94411A002300A742D8
:101FA00019D89F421BD059460491012103914946FB
:101FB000029141460191514607980091FFF7B4FE06
:101FC000B7E700F0FDFA089A099B06000F00921986
:101FD0007B419942E5D901225242D317E3E7964269
:101FE000E1D901225242D317DDE7C046089F022003
:101FF000FFFFFF0FF8B557464E464546DE46E0B5B3
:10200000404D81468A466A68EFF3108872B61368BD
:10201000002BFCD0BFF35F8F2E68B47B002C38D030
:10202000670033683F19033FDB195A78B273002AFF
:1020300000D1F273344AA118AA680901521849461E
:10204000116051465160314991600021D160997011
:1020500059701970737B9B46002B36D0220059466D
:10206000B06873689847002821D05B4658463168AD
:102070005B005B44CF19033BB870CA18CB5C002BE4
:1020800000D07B705B46147073735C451ED00026D5
:1020900027E06B68BFF35F8F1C6088F31088012016
:1020A0004042F0BCBB46B246A946A046F8BD5B46DE
:1020B0005B0032685B44033BD3189C70D119D25D3E
:1020C000002A00D05A705B460B7074734A46534620
:1020D000287D00F0D5FA061ED9D02100286800F02E
:1020E000F7FCEB681B19013B19786B68BFF35F8F36
:1020F00000221A6088F310880020002ED1D1080237
:102100002043CEE78C5E0220FFFFFF0FF91C00107A
:1021100010B5124C6368002B04D00A211048FFF759
:10212000C9FD10BD23000F4A1021206800F06AFB92
:10213000032000F039FA032000F012FB03200A49C3
:1021400000F058FAFFF7E8FA084B9C460323604476
:102150002375074B80006060DC60DEE78C5E022048
:1021600080A10220C51C00102D1E0010400000346C
:10217000089F0220004870478C5E0220F0B54E4652
:102180005746DE464546E0B585B0019310AB1B7857
:102190000600039300239A46994600927268EFF373
:1021A000108B72B61368002BFCD0BFF35F8F3568BD
:1021B000AC7B002C00D17FE067002B683F19033F08
:1021C000DB195A78AA73002A00D1EA73524AA1187F
:1021D000B2680901521800980199106051600E9977
:1021E00091600F99D1604A469A705A701A706B7B51
:1021F0009846002B00D176E022004146A8686B6823
:102200009847002861D04346404629685B00434414
:10221000CF19033BB870CA18CB5C002B00D07B7081
:10222000434614706B7344455ED0F3681B19013B41
:1022300018787368BFF35F8F4A461A608BF3108873
:102240005346002B08D10002204305B0F0BCBB462A
:10225000B246A946A046F0BD039B002B5AD00E9B68
:1022600000200F999847030004000D000B4351D044
:1022700000290DDA0098019902000B00121BAB41F6
:10228000994213D83DD000920193039B9A4685E76B
:1022900000F096F902000B00A4185D41009401952E
:1022A000A94203D8F1D100998A42EED901235B42B9
:1022B000DC1700930194E8E77368BFF35F8F1C603D
:1022C0008BF3108801204042BFE743465B002A6839
:1022D0004344033BD3189C70D119D25D002A00D02F
:1022E0005A7043460B706C73307D009A019B00F06E
:1022F000C7F98246002898D02100306800F0E8FB3A
:1023000093E700999142BED901235B42DC17009309
:102310000194BAE7002098E7FFFFFF0FF0B5040033
:102320000D0006267642F717C64636196F4100B5EE
:102330008F4213D810D000F043F932003B00121A3C
:102340008B41002B14DC002B37D02900200000F03B
:1023500041F980BCB846F0BD8642ECD90026002782
:1023600000F02EF932003B00121A8B41002BEADDFF
:1023700030003900FFF73EFE0028E6DB00239846D8
:10238000BC460F4A0F4F7B6A9C4504D8B96A8E42FF
:10239000DBD99C45D9D11168EFF3108072B60B6878
:1023A000002BFCD0BFF35F8F1368BFF35F8F4146F4
:1023B000196080F3108820BFE5E7002AC5D0D7E771
:1023C00080A102200040054070B504000D0000F01F
:1023D000F7F802000B0020002900801859418B42B9
:1023E00005D802D0FFF79AFF70BD8242FAD90120CA
:1023F0004042C117F6E7C04670B5060000F0E0F8AD
:10240000FA2204000D00002330000021920003F0A6
:1024100047F8001969418D4205D802D0FFF77EFFC9
:1024200070BD8442FAD901204042C117F6E7C04688
:10243000F8B5CE46474680B506000C00FFF7DAFD3A
:10244000031E11DC284A0020536A9C4203D8926A7A
:102450000130B24203D3C0BCB946B046F8BDE31A5E
:102460005A1E9341D8B2F6E720BF204D6968EFF3BA
:10247000108872B60A68002AFCD0BFF35F8F286804
:10248000D9B2427B8A4221D0FF2207681A40B9465E
:102490005700BC464F4694446744033FBF78002F23
:1024A0000FD0EF681B0ABA18013A1278DBB29A42D1
:1024B00016D06B68BFF35F8F00221A6088F3108814
:1024C000C0E72A699342F4D12F61F2E7FF22EF6857
:1024D0001A40BA18013A1B0A1278DBB29A42E8D1C4
:1024E00000F0F6FAE5E7C046004005408C5E0220A9
:1024F000F0B5D6464F464646C0B5EFF305823F23BA
:10250000134018001038EFF3108C72B620490A6897
:10251000002AFCD0BFF35F8F0122170087401D4CBB
:102520001600A24667631C4C2578A0462C00C440C8
:102530002640224209D1BFF35F8F0E608CF31088D2
:10254000E0BCBA46B146A846F0BD5246566A134AA8
:102550008400A25896420ED34246114BBD43E35825
:102560001570BFF35F8F00220A608CF31088002B78
:10257000E6D09847E4E70B4A9B00904643441A682C
:102580001A60BFF35F8F00230B608CF31088D7E7CE
:10259000280100D0004005400BA7022074A30220B0
:1025A000306F0220D03F054010B5034B01001800EA
:1025B000024AFFF72BF810BD07A70220D49600109F
:1025C000034B596A0A00986A596A8A42FAD17047DD
:1025D00000400540064A536A9942FCD807D1044B93
:1025E00002E05A6A914202D19A6A8242F9D3704754
:1025F0000040054070B504000D00EFF3108672B680
:102600001A4A1368002BFCD0BFF35F8F002D1BD03C
:102610002000FFF7CFF8164981420AD02000FFF7CB
:10262000D1F801212000FFF795F80123A340114ABA
:102630001360114BA400E550BFF35F8F00220B4BDA
:102640001A6086F3108870BD0121A1400A4BA200D8
:10265000D5500A4B20001A788A4305491A70FFF7B3
:10266000CBF900212000FFF775F8E5E7280100D03D
:10267000F124001038600540306F02200BA70220C3
:10268000F0B54F46D6464646C0B507002F4C616AA6
:102690000D00A66A616AA942FAD18B4208D805D01A
:1026A0000120E0BCBA46B146A846F0BDB242F7D917
:1026B000EFF3108A72B6264801680029FCD0BFF3F8
:1026C0005F8F0125BD402349204C88460978894603
:1026D0002943C9B28C46414660460870391D8900BD
:1026E00065630A511C49B8004350216A0020294201
:1026F00019D0616A0800A66A616A8142FAD18B42E8
:1027000019D801D1B24216D8CC451DD00F4B1F228B
:102710001D625D6301233A409340104A012013601B
:1027200043464A461A70BFF35F8F0022084B1A6077
:102730008AF31088B5E70020BFF35F8F0022044BB7
:102740001A608AF31088ACE70120ECE700400540EE
:10275000280100D00BA7022074A3022080E200E031
:10276000EFF3108C72B60A490B68002BFCD0BFF354
:102770005F8F01238340074A0748136202789A4318
:102780000270BFF35F8F00230B608CF310887047DB
:10279000280100D0004005400BA7022070B50500BD
:1027A00014001600002915D00C00002A12D08068F1
:1027B0006B689847296800280ED073009B19620047
:1027C000033B1219CB18033A9C7088188A5C002AC4
:1027D00015D10670200070BD63001B197200033B09
:1027E0009219CB18033A9E7088188A5C002A02D18D
:1027F00004703400EEE75A7004703400EAE75A704F
:102800000670E7E730B583600023CCB24373013331
:10281000047342608373C4730D000068012C06D9F1
:10282000421C0133DBB2137003329C42F9D1FF2109
:1028300029404B005B18C01800230338437030BD9B
:10284000F8B505000C1E07D0630001681B19033B97
:10285000CB185A78002A01D12000F8BD500080180A
:102860000338091800204F7848702100587028005C
:10287000FFF794FF390006002800FFF7E1FF04008E
:10288000002EE9D0002826D031002200A8686B680D
:102890009847296800280FD063001B197200033B7A
:1028A0009219CB18033A9E7088188A5C002A00D0CF
:1028B0005A7004703400CFE773009B196200033B29
:1028C0001219CB18033A9C7088188A5C002A00D031
:1028D0005A700670C0E73400BEE7C046F0B55746F0
:1028E0004546DE464E46E0B50D006B0001685B19BB
:1028F000DF1E0400C85D83B00192CA1900284CD0C5
:1029000043001B18033BCB185E78B446002E16D14B
:10291000019E002E3ED0E67B002E04D073009B1952
:10292000CB18033B5D70E57300282FD10023537053
:1029300003B0F0BCBB46B246A946A046F0BD72004B
:102940006244033A8A1851788846002151708946BA
:102950005970320001002000FFF720FF43468246F5
:10296000002B07D05B0021684344033BCB185A7807
:10297000002A16D1424651462000FFF70FFF21687A
:10298000019BCA19002BC6D10028CFD043001B18C9
:10299000033BCB1800219970C8E7019B002BBAD1EB
:1029A000C4E7500080180338091848788346484621
:1029B0004870587041462000FFF7F0FE59468046A7
:1029C0002000FFF73DFF414602002000FFF7E6FE32
:1029D0008046CFE7F0B557464546DE464E46E0B561
:1029E00083B00191457B04006B0000685B19DF1E1A
:1029F000C15DC21900294ED04B005B18033BC318C0
:102A00005E78B446002E18D1019E002E40D0E67BA1
:102A1000002E04D073009B19C318033B5D70E5734F
:102A2000002931D1002328005370617303B0F0BC3A
:102A3000BB46B246A946A046F0BD72006244033AC6
:102A400082185078804600205070814658703200BD
:102A50002000FFF7A3FE43468246002B07D05B0011
:102A600021684344033BCB185A78002A17D14246C9
:102A700051462000FFF792FE019B01002068C21919
:102A8000002BC4D10029CDD04B005B18033BC318E9
:102A900000209870C6E7019B002BB8D1C2E7500018
:102AA000801803380918487883464846487058709B
:102AB00041462000FFF772FE594680462000FFF78E
:102AC000BFFE414602002000FFF768FE8046CEE7C9
:102AD00070B5040000292CD0437B8B422ED00568B2
:102AE00048004018033828188278002A21D0530063
:102AF0009B18033BEA5CEE188A4202D11BE0002AD5
:102B000008D053009B18033BEB185A788A42F6D141
:102B100042785A7000230122837043702000FFF72F
:102B2000DDFE617B02002000FFF738FE60730120AC
:102B300000E0002070BD43783370EBE701221900FC
:102B4000FFF7CCFE60730120F4E7C04610B5040027
:102B5000FEF7E2FD01002000FFF7ACF8FF23237130
:102B6000BFF35F8F10BDC04610B50400FEF7D4FD63
:102B700001002000FFF79EF8FF23A380BFF35F8FC3
:102B800010BDC04610B504000120FEF7D1FD044B76
:102B90009C46604480002060BFF35F8F10BDC0463C
:102BA000400000342C4B2D4A70B51A602C4A2D4B36
:102BB0002D491A6014008B689C43FBD12B4D2C4E81
:102BC000B54208D2013E761BB60808CD98472300CF
:102BD0000134B342F9D100F097F8264A214B1A602C
:102BE000214A9368DB43DB01DD09002BF9D1402248
:102BF000214B224C224E9A675A671A67DA66B44212
:102C000008D223682000002B20D00834FFF7ACFF47
:102C1000B442F6D31B4C1C4EC022B168200002F017
:102C20002DFDB460FEF76AFDFFF71AF8FFF770FAA2
:102C3000164C174EB44208D2013E361BB60808CCDB
:102C400098472B0001359E42F9D170BD0834FFF73B
:102C50007DFFB442D5D3DDE700E00040BFCDFBFEF1
:102C6000FE7F3C0000F0004000C000407067022082
:102C700080670220FFFFFF0100F00140686702202B
:102C8000706702200000002000ED00E08067022055
:102C900088670220094A03001068002805D0084907
:102CA000C3188B4207D81360704706480449C318FD
:102CB00010608B42F7D901204042F5E7EC980220E2
:102CC000000004200CA7022000BEFDE70FB400B5F1
:102CD000084883B002F03AFE049B002B07D005A9F8
:102CE0001800019101F002FD034802F02FFE00BE22
:102CF000FDE7C046F89600100897001010B501488F
:102D0000FFF7E4FF0C97001010B50C2082B000F024
:102D1000ADF9FEF7EBFC00280ED0854B854A1A6012
:102D20005A609A60DA601A615A619A61DA611A62CD
:102D3000814A5A6202B010BD804CA06700F0ECF9E5
:102D400001227F4B1A60636C012BFCD103227D4B67
:102D50001A607A4A936B012BFCD1013301217A4A24
:102D60007A480093043300F02DF90523784A009344
:102D70000121784800F026F9774B5A68FF2A02D8DB
:102D8000802252005A6080226E4B694C12011A60F8
:102D90002169002905D0606901F022FD0130013868
:102DA000FDD1E0226C4B6D4819680A400260022296
:102DB0001968514001320A40042102609A681142A8
:102DC000FCD08021664A09011160802252005A60BD
:102DD000644B2361644B5968FF2900D85A60032271
:102DE0000121574B1A60604A93681942FCD0E023D6
:102DF000106803405D480360126803234A400221C3
:102E00001340594A036093681942FCD08021584B03
:102E1000090119608021574B490051606361564B8D
:102E20005A68FF2A00D859608022544B12011A6058
:102E3000E169002905D0606901F0D2FC0130013858
:102E4000FDD1E0234C4A11680B404D490B608021B5
:102E50004C4B090119608021364B49005160E361F8
:102E6000494B5A68FF2A00D859608022474B12010B
:102E70001A60216A002905D0606901F0B1FC0130B7
:102E80000138FDD1E023404A11680B4040490B60F6
:102E90008021404B0901196080235B005360802230
:102EA000244BD20223623C4B5968914200D25A60B3
:102EB00080223A4B12011A60616A002905D06069CC
:102EC00001F08EFC01300138FDD1E023324A116857
:102ED0000B4033490B608021324B0901196080237C
:102EE000DB025360144B63622F4B5A68FF2A02D8EF
:102EF000802252005A6080222C4B12011A60A16974
:102F0000002905D0606901F06BFC01300138FDD16A
:102F1000E023254A11680B4025490B608021254B91
:102F20000901196080235B005360124BA36101E724
:102F300048700220006CDC021BB7000000800040DB
:102F40003CB0004030B00040002F68590080024083
:102F5000008C864700C00240308000403090004026
:102F600030A00040001BB7003C8000403C90004077
:102F70003CA00040405973075480004054B00040CA
:102F80005490004054A000406080004060B0004079
:102F90006090004060A000406C8000406CB0004039
:102FA0006C9000406CA000404880004048B0004059
:102FB0004890004048A00040014B8000C058704736
:102FC00048700220F8B504000C2017001D000E0008
:102FD00001F006FC43011B1A9901C91AC90009181E
:102FE0008901380001F0FCFB069B29041B031943EF
:102FF0002368002B20DB194B194DE3185A4253412B
:103000008022520194461B03164A63441360164AF9
:1030100013601F00AA689743FBD1C023221D9B01A8
:10302000134321222660A0601A602268002AFCDA7D
:103030000822E1601A60F8BD3F2322681340B342C2
:10304000D9D1A3681B051B0D8342D4D1EE22E368BE
:10305000D20213408B42CED1EDE7C0460040FDBF07
:1030600000C0004000E0004000F000408023024A21
:103070009B000343D36270470080054010B51400E5
:1030800080221C4BD2051A6000281AD001231A4A4C
:1030900018431A4BDA611A4A42401A62596298621E
:1030A0008022144BD2051A601649174A1160E0229B
:1030B000D2041A60002C07D18022144B12061A6029
:1030C00010BD0E4BD861EBE763011B1B9A008023F8
:1030D000121912015B049A4208D20D4B1A60074B79
:1030E0005A608022094BD2051A60E9E7084B094A69
:1030F0001A60F4E700B00540D3C007B00080054077
:103100002D3FF84FFCFF01000820014000A00540C2
:10311000F89C0220FFFFFF00AA23064A1B01136050
:103120002F230549D360054B19605368002BFCDA47
:103130007047C0460040024000B0FA000060024004
:103140009A4200D2885470477047C046F8B5574637
:103150004546DE464E46E0B598460A9B06009A462E
:103160000D9B0F00934615009B0710D10B9B0C9AEB
:1031700093420CD213005C460B9A9D1A5D442200C8
:103180004346013439002020B047A542F7D10B9CBB
:103190006319002C09D01D0053462A1B013C185D01
:1031A00039004346B047002CF6D10D9B9B070ED546
:1031B0005B46EC1A0C9BA34209D999462A00434668
:1031C000390020200134B0470135A145F6D8280048
:1031D000F0BCBB46B246A946A046F8BDF0B54F4686
:1031E0004646D646C0B584B098460EAB1B78129FB3
:1031F000994694460D9C109B119EBA0725D4002E2B
:1032000061D19C4200D3C0E001223A4092461F2C7B
:1032100000D9B9E00C9A551E302201E0202C03D0D1
:1032200001342A55A342F9D85246002A0DD0A642AD
:103230000BD90C9A551E3022202C02D155E0202C9F
:1032400053D001342A55B442F9D1FA062DD57A0566
:1032500054D4002C4ED10F9B102B00D188E00F9B33
:10326000022B19D030230C9A012413704B46002BEB
:1032700020D02D230C9A135501340C9B62460093E9
:103280000397434602960194FFF760FF04B0E0BC49
:10329000BA46B146A846F0BD01240C9A60331370BB
:1032A00030220C9B1B191A700134202CE5D04B46A0
:1032B000002BDED17B0730D43B07DED520230C9AD0
:1032C00013550134D9E7012215003D40AA463A4280
:1032D0001CD04A46002A2BD10C323A4228D19C42BB
:1032E000A5D21F2C96D9202E15D92024FA06C4D594
:1032F0007A0503D4A3421DD0B4421BD00F9B102BE0
:1033000023D0022B0ED0202CB7D0C9E79C429CD2F0
:103310001F2C00D87EE7202497E72B230C9A135507
:103320000134AAE7202CA8D00C9B1B19013438E0EB
:10333000013ED4E7631E012C00D18CE70F9A102ABE
:1033400025D0022A2AD01C00AAE7BB0607D4202CCD
:1033500093D00C9B1A19013478231370D3E7202CD7
:1033600000D18AE758220C9B1B191A700134CAE756
:10337000BB0604D478230C9A0124137090E75823D9
:103380000C9A012413708BE7202400265DE7023C91
:10339000BA06E7D40C9A12191C00DDE70C9A924683
:1033A000534462221A70AEE710B5002800D110BD58
:1033B00002F07CFAFBE7C0460B0010B5002802D0F3
:1033C00049681B68984710BDF0B5DE4657464E4623
:1033D0004546E0B59BB09B46249B89469846259B75
:1033E0000B900C924046424619009A4601F0C9FCE7
:1033F000002800D0D8E0012240465146774B524287
:1034000001F0BAFC002800D0CEE00122404651462F
:10341000734B524201F09AFC002800D0C4E0002215
:1034200000234046514601F091FC002800D0B9E14C
:10343000424653460A9209938023289ADB001A4099
:103440000E92289A1A4201D1062326930A9A099BC2
:103450001600134300D0C7E0289B002500261B055B
:1034600000D49BE100230D93269A0D9B9A4200DC29
:103470009FE1D31A013B26938023289ADB001A434D
:103480000023002728920D93279B0024BB4200D9DC
:10349000DC1B0223289A1A400E92289A134203D06A
:1034A0007B427B415B421C400D9B002B07D00A985E
:1034B00009992A00330001F0E8FB0A9009910022E3
:1034C00000234046514601F041FC002805D08020F1
:1034D00000068446099961440991289A414B0B9D45
:1034E00013400493269B0A9A0293099B039400922B
:1034F000019349465B4628000C9A00F08BF90400C2
:10350000002F62D0289B220098061F23C0179843E3
:10351000631C984649465B466530A8470D9A0025CE
:10352000D317D4185C40D30F9A46013F01E0202DF9
:1035300013D00AAA94461F23200063440A210135B0
:103540005E1901F04DF93031317020000A2101F08F
:1035500047F926000400092EE9D805230693002325
:1035600004930A330393534605970B9F029312ABC0
:10357000009342465B46494638000195FFF72EFE10
:103580000E9B0400002B20D00C9BC51A279BAB423E
:103590001BD91E0022005B46494620200135B84752
:1035A0000134AE42F6D810E0289B42460493279B94
:1035B00049460393269B0B9802935346009201932E
:1035C0005B460C9A00F026F9040020001BB0F0BC0A
:1035D000BB46B246A946A046F0BDC046FFFFEF7FFE
:1035E000FFFFEFFFFFF7FFFF734B099F9C4678003B
:1035F000400D604401F0D8FB704A714B01F063FB51
:10360000704A714B01F038FB3B03704A1B0B1A43A5
:1036100004000D00300011006D4B002201F023FB6F
:103620006C4A6D4B01F04FFB02000B00200029009B
:1036300001F022FB01F0D0FB0D9001F0B5FB674AD1
:10364000674B04000D0001F03EFB0022654B01F0CA
:1036500013FB01F0C1FB644A0600644B2000290003
:1036600001F031FB040030000D000F9601F09CFBCF
:103670005F4A604B01F027FB02000B00200029008D
:1036800001F0F1FA02000B0006000F0001F01BFB35
:10369000320004000D003B003000390001F0ECFA6C
:1036A000002210901191544B2000290001F0EDFAF6
:1036B0000022524B01F0E0FA02000B00200029002A
:1036C00001F0E3FA00224E4B01F0D6FA02000B00A3
:1036D0002000290001F0D9FA0D00802104003200F9
:1036E0003B000020C90501F0BEFA02000B002000DB
:1036F000290001F0C1FA02000B001098119901F0A5
:10370000C4FA0022314B01F0B7FA3E4B0F9C9C46A5
:1037100064440022230501F0D6FA05000E000200E1
:103720000B000A98099901F011FB00280AD00D9BA3
:103730002800013B31000D930022304B01F0A5FA27
:1037400005000E00C6270D992B0063318F42BF4143
:1037500028997F420437090500D495E6334300D108
:1037600082E6099C284A2100284B0A9801F0FCFABD
:10377000002808D000222100254B0A9801F0E6FA23
:10378000002800D070E6269B002B00D17CE60E9B23
:103790005A1E9341269AD31A269375E600230427CE
:1037A0000D9371E643460A9380231B065344099305
:1037B00042E6002326935FE601FCFFFFFB799F5062
:1037C0001344D33FB3C8608B288AC63F0000F03F44
:1037D0000000F83F61436F63A787D23F71A3790967
:1037E0004F930A400000E03F1655B5BBB16B024055
:1037F000EF39FAFE422EE63F00002C400000244044
:1038000000001840FF0300002D431CEBE2361A3F76
:1038100080842E41F0B54E46DE4657464546E0B51B
:1038200097B09946209E219F229B834698460791F8
:103830000C923B0032003000390001F0A2FA00285F
:1038400000D0ADE1012230003900CC4B524201F0F2
:103850007DFA002800D003E1012230003900C84B76
:10386000524201F089FA002800D0D9E0002230004D
:103870003900C44B01F080FA002800D0BBE00022E0
:1038800030003900C04B01F061FA002800D0B2E0EE
:10389000002200233000390001F058FA002800D03F
:1038A000D3E000230D93249B5B0501D406239846A7
:1038B00008AB9C461722002430234146624404E0B2
:1038C000013413550139202C01D00929F8D8884634
:1038D0003000390001F080FA4246AC4BD2009B1810
:1038E0001A685B6805000892099301F05DFA02000E
:1038F0000B003000390001F0B6F9089A099B01F07D
:10390000E2F90A900B9101F08BFA824601F048FA35
:1039100002000B000A980B9901F0A5F900229C4BBC
:103920000A900B9101F028FA002800D1E2E001236F
:103930009C46E244504601F033FA02000B0008981E
:10394000099901F009FA002802D000239A460135AE
:103950004346002B00D18BE008AB17269C46089508
:103960006644554614E001235B4243440A21280083
:103970009A4600F035FF013430313719397028008C
:103980000A2100F02DFF092D00D8D0E0D046050017
:10399000202CE8D10EAB98460323249A1340012B28
:1039A00000D0E8E0239A2023002A1DD00D9A002A97
:1039B00000D0FDE024990C320A4215D0239A013A36
:1039C0002392239A9A4200D805E108AA9446172127
:1039D00030226144202B07D023980133CA548342FC
:1039E00000D1E9E0202BF7D1249A01930392239A86
:1039F000434602921EE0249B58460493239B009664
:103A00000197039343460C9A029307994B46FFF79D
:103A1000DBFC17B0F0BCBB46B246A946A046F0BDE1
:103A2000249B5B070ED403225A4B249901920391E5
:103A300023990291009358464B460C9A0799FFF739
:103A400085FBE6E70422544BEFE73B003200002001
:103A5000002101F008F9012306000F000D9322E771
:103A6000249B0393239B0293042301934B4BE1E795
:103A7000280001F099F902000B003000390001F034
:103A8000F2F8434B002206000F0001F05FF90EAB85
:103A9000984600280AD10022300039003C4B01F042
:103AA0006BF9002802D1EB0700D50135202C00D19D
:103AB00072E708AA94461723280063440A210134B8
:103AC0001E1900F065FE3031280031700A2100F027
:103AD0005FFE051EEAD10323249A1340012B6DD00B
:103AE000202C48D00D9B002B14D02D224146631C66
:103AF0000A5579E700220A980B99254B01F026F91F
:103B0000002800D024E75346002B30D101239C46E7
:103B1000E2441DE7249B5B0724D4249A2300120768
:103B200000D461E72022414601330A555CE757463D
:103B3000089D202C00D12DE7220030214046002F87
:103B400009D00132B154202A00D123E7831A013B66
:103B5000E318002BF5D10EAB98462E234146541C9A
:103B60008B54A3E72B224146631C0A553CE7DB0735
:103B700000D4EDE6CAE7202336E7C046FFFFEFFF9B
:103B8000FFFFEF7F65CDCD4165CDCDC1D098001051
:103B90000000E03F209700101897001028970010B1
:103BA000249B0393239B0293032301930C4B41E734
:103BB000239A013A239217E7040091E7239B002BF5
:103BC0008ED00D9B002B08D10C222499230011428A
:103BD00000D1F6E6F2E61C0082E72300EEE6C046DE
:103BE00024970010F0B5DE4657464E464546E0B5F0
:103BF000A1B01C002A9B92460993B94AB94B814651
:103C00008B461A60002900D12BE12078002700287C
:103C100000D12DE1B44B5E460893B44B0C9309E000
:103C20003A00534631007D1CC8472F0001342078EC
:103C3000002871D02528F3D110239B460C3B9846D1
:103C4000023B00229C460134207825000300203BE3
:103C5000DBB2102B03D808999B00CB589F4603007A
:103C6000303B092B6BD9002398462A2800D18AE0E3
:103C700000230A932E2800D176E00300683BDBB2D4
:103C8000122B1CD89A499B00CB589F460123013424
:103C90001A43D9E7634601341A43D5E74346013452
:103CA0001A43D1E75B4601341A43CDE708230134B8
:103CB0001A43C9E780235B0068781A4301356728F7
:103CC0000AD824281DD90300253BDBB2422B18D883
:103CD0000C999B00CB589F460300693BDBB20F2B2E
:103CE0000FD80121834C9940A4460C400B946446A4
:103CF000214200D002E20A2B00D1E1E0072B00D1E3
:103D0000B8E07B1C98463A00534631006C1CC8470B
:103D10002078474600288DD1B3463C00BA4501D8EB
:103D200053465F1E53463A0059460020C8472000BC
:103D300021B0F0BCBB46B246A946A046F0BD002368
:103D400001009800C0180135400040182978030090
:103D500008003038303B0928F3D998460023080082
:103D60000A932E2800D088E780236878DB001A4366
:103D70000300303B691C092B00D807E12A2800D139
:103D800016E10D0079E7099B02CB8846002903DB89
:103D900060780993651C6BE702210A43414649425A
:103DA000884660780993651C62E768786C2800D1C2
:103DB00023E280235B001A43013580E780239B00C8
:103DC00068781A4301357AE76878682800D11AE2E2
:103DD000802301351A4372E7462800D18BE1072181
:103DE000099B0492424607338B43190003920A9AB7
:103DF000484602920CC90092019309913A00534639
:103E00003100FFF707FD6C1C070010E77B1C98468C
:103E10003A00534631002520C84747466C1C06E748
:103E2000920700D431E2099B3A0001CB31009B4656
:103E3000C0B25346C84743467C1C4744012B00D8B8
:103E4000FBE2A8464D4622005346013431002020B3
:103E5000A847BC42F7D1A9465B46454609936C1C6E
:103E6000E5E6254B207899460027002800D0D1E6CA
:103E7000002453E7099B190008C98846002B00D18C
:103E8000A6E021210A43934610A98C461F220F2148
:103E9000624409958C4615000B9C02E0202C0CD046
:103EA00013006046184001003731092800D807394F
:103EB000013429551A090F2BF0D8099D0B9490E075
:103EC000099B02CB12930A9B8B46002B7AD1087870
:103ED0000221494200281AD001315C4659440FE0C2
:103EE000E53B0010F09C022030970010C0970010B6
:103EF0007497001041900000493100108C4203D0AB
:103F000063780134002BF9D15B46E31A0B938023CD
:103F10001100DB00194009911A4204D00A9B0B9949
:103F2000994200D90B930223190011400D911342BD
:103F300000D18BE1002800D173E1099B002B00D157
:103F400042E10A9B3A009C465B46BC44DB1B64464C
:103F50009B464B460994A9461D0009E05346310093
:103F6000571CA8475B46D85D002800D155E13A00B0
:103F70009442F3D12B004D469946099F0D9B002B8F
:103F800000D04EE1129B6C1C099350E60023040004
:103F90009800C0180131400000190C78030020007F
:103FA0003038303B0928F3D920000D000A9364E62D
:103FB000099B023501CBC143C91708400A900993F8
:103FC00028785AE608780028A1D00A9B591E83E772
:103FD000102110008843113108438346520500D454
:103FE00052E75B460693082305930A9B3A00049325
:103FF00010230393002302930B9B3100019318AB12
:10400000009348465346FFF7E9F8434607006C1C07
:1040100009930CE6202301009943472904D180230A
:104020001B011A4302239843452801D120231A4338
:104030000721099B0492424607338B4319000392E0
:104040000A9A484602920CC90092019309913A00DB
:1040500053463100FFF7B8F96C1C0700E7E562280A
:1040600000D1F6E16F2800D132E1582800D1CFE02D
:1040700010239A43063B0D93692800D024E10B924C
:10408000530546D501230B9A9A430B92692840D0D9
:1040900064283ED00B9A802311009B0019408B4668
:1040A0001A4200D0DCE1802314005B001C401A425D
:1040B00000D07BE213005B0600D48BE1FF22099B5A
:1040C00002CB11408B4609935B46002B00D08CE15C
:1040D0000B9A1033110099430B91520500D484E1DF
:1040E00000240B9B0693434605930A9B04930D9B68
:1040F0000393002361E120231A4370E610230D93FC
:104100007828ACD10C23110099430B915205B9D4F6
:10411000BCE70B9A802311009B0019408B461A4282
:1041200000D0D8E0802314005B001C401A4200D06D
:10413000E2E113005B0600D527E1130009991B0695
:1041400000D495E208C91BB2D8171A18424092B29F
:1041500009919346DA0F1392002B09D18023102284
:104160000B99DB000B4091430B91002B00D01BE11E
:104170000B9A6123920600D54123DBB210A90A3BBA
:104180001F228C46129343466244A84614970D9D05
:104190005F461593B34616000AE03033DBB20134B4
:1041A0003355AF4200D24EE1202C00D14BE1070045
:1041B0002900380000F014FBCBB20929EDD9129A7E
:1041C00094466344DBB2EAE75B46DB1B9B460B9BF2
:1041D0004C4699465346AA461D003A002B00310032
:1041E000A0475B460137D85D0028F6D14B460B93BC
:1041F0002B00A14655469A46C0E6C0239B00A878EE
:104200001A4302355BE5C023A8781A43023556E508
:1042100020231A43103B0D9374E72B004D4699461B
:10422000ACE60B9BBB46984500D8ABE647445C46E2
:10423000A8464D46FF1A2200534601343100202083
:10424000A847BC42F7D1A94645469BE60B9A531CAA
:10425000904500D822E24346DB199C1A4B46A946FA
:104260001D003A005346013731002020A847A742DD
:10427000F7D12B004D469946434601330B935B46DD
:104280001878002800D058E67CE64346012B00D879
:1042900002E27C1E4444A8464D463A00534601378C
:1042A00031002020A847A742F7D1A9464546099BDF
:1042B000220001CB31009846C0B25346C84743465E
:1042C000671C09936C1CB2E4642800D1D7E619E797
:1042D00008230D9316E70722099B07339343013206
:1042E00094469C44624609920CCB9C46DB17109383
:1042F000119310981199030053400E9364460B00DC
:1043000063400F930E9B0F9C1B1A8C410E930F94CE
:104310006346DB0F139300239B4663461A433BD04F
:104320000B9A6123920600D54123DBB20A3B12931C
:10433000434610A91F228C46002415934B46624425
:10434000B1461497169527000E9C0F9D90460D9E22
:1043500017930CE03032D2B243460137DA55AB4501
:1043600000D177E1202F00D177E104000D00320069
:1043700000232000290000F075FAD2B2092AE9D9F9
:10438000129B9C466244D2B2E6E7FF22099908C913
:1043900013401A000991DCE60B9A1023110099438F
:1043A00000240B915205BBD50B9B06934346059306
:1043B0000A9B04930D9B0393139B029318AB3A0043
:1043C00001940093310053464846FEF707FF6C1CEA
:1043D00007002CE413001B0600D458E1099B04CB12
:1043E0001204120C934609936EE60B9A612392060F
:1043F00000D5412310A91F228C46DBB262440A3B40
:10440000139714965F461600AB4612930D9D08E075
:104410003033DBB201343355AF421DD3202C1BD0D7
:1044200007002900380000F0DBF9CBB20929EFD9E9
:10443000129A94466344DBB2ECE75B46270009938B
:104440006C1CFFF7F4FB159B45465E469846149F8F
:10445000AAE702230D9355E65D46139F149E40E69E
:104460000722099B07339343013294469C446246DA
:1044700009921A685B6810009B4613005A46134362
:1044800007D10B9A1033110099430B91520500D5B7
:1044900026E60B9A6123920600D54123DBB210A9D0
:1044A0000A3B1F228C46129343466244139715958C
:1044B00000245D460700B34690460D9E14930DE020
:1044C0003032D2B2434601341A550023AB4200D1F8
:1044D000D4E0202C00D1D4E007000D0032000023EE
:1044E0003800290000F0BEF9D2B2092AE8D9129B9F
:1044F0009C466244D2B2E5E7099B1A0008CA1592AD
:10450000DA179C185440DA0F1492002B08D180233C
:1045100010220B99DB000B4091430B91002B2BD108
:104520000B9A6123920600D5412310A91F228C46C5
:10453000DBB262440A3B129713965F461600AB4605
:1045400009930D9D08E03033DBB20137F355AC42DF
:104550000ED3202F0CD004002900200000F040F9D9
:10456000CBB20929EFD9099A94466344DBB2ECE750
:104570005D46139EBB46129F0B9B3A000693434633
:1045800005930A9B310004930D9B48460393149BAB
:104590006C1C02935B46019318AB00935346FEF7E5
:1045A0001DFE159B07000993FFF741FB099B10CBEC
:1045B0001493002C08D18023DB001100134010223B
:1045C00091430B91002B2BD10B9A6123920600D5BE
:1045D000412310A91F228C46DBB262440A3B12978A
:1045E00013965F461600AB4609930D9D08E03033E5
:1045F000DBB20137F355AC420ED3202F0CD00400B0
:104600002900200000F0ECF8CBB20929EFD9099A73
:1046100094466344DBB2ECE75D46139EBB46129FB3
:104620000B9B3A000693434605930A9B3100049383
:104630000D9B48460393002302935B46019318ABFE
:1046400000935346FEF7CAFD149B070009936C1CA8
:10465000FFF7EDFAA64200D884E6159B0E940F955D
:104660009846179B3C004E46169D9946149F9BE624
:1046700008C9D8171A18424009916AE5BE4200D805
:1046800027E7149B5E469846139F159D29E5099BD5
:1046900004CB9346099317E53C0008E60B93F0E53D
:1046A0000EB4012230B584B007AC08CC064D010031
:1046B0000094280052420394FFF794FA04B030BCEF
:1046C00008BC03B01847C0464131001000B585B0A2
:1046D0000391012102900093034813004A4202A96A
:1046E000FFF780FA05B000BDB933001010B5094AD4
:1046F0000300146884B0002C08D001220091064801
:10470000524203A9A047012004B010BD01F01EF9D8
:104710000020F9E7F09C0220A93300100148042191
:10472000014B1847C05E02204D470010142310B5FE
:104730000100188804331B88984710BD162310B554
:104740000100188802331B88984710BDF8B547460A
:10475000CE4680B50F1E19D01423994604330400A9
:104760000025012698464B461888434621681B8839
:10477000984701C4431E9841013540420640AF426C
:10478000F1D13000C0BCB946B046F8BD0126F8E70B
:10479000124A936F9B0815D29066D166002905D006
:1047A000FFE7FFE7FFE7516F106F704704B5802107
:1047B0000906C2175140002800D0C84304F0E4FCA9
:1047C000002104BDF0B5146E556E576F166FFFF7DC
:1047D000E3FF1466556657671667F0BD000000D00A
:1047E000114A936F9B0813D210665166002905D0B9
:1047F000FFE7FFE7FFE7516F106F704704B5002830
:1048000001D00020C04304F0BFFC002104BDC0461D
:10481000F0B5146E556E576F166FFFF7E5FF14660F
:10482000556657671667F0BD000000D094464E4AA3
:10483000926F9208624601D230E0C046F0B54A4E0F
:10484000B56F6D08FCD3346E756E776F366F00F000
:1048500025F89446444A14665566576716676246BB
:10486000F0BDC0469446404A926F9208624601D21B
:1048700058E0C046F0B53C4EB56F6D08FCD3346EC1
:10488000756E776F366F00F04DF89446364A1466B1
:104890005566576716676246F0BDC046002B24DB9D
:1048A00011D000293EDA00B5C943404200D10131A0
:1048B00000F038F8C943404200D10131DB43524295
:1048C00000D1013300BD002AEBD1002801D100291D
:1048D00005D00020C90FC90701D1C043410800B568
:1048E00004F04AFC0022002300BD00B500290ADBC9
:1048F000DB43524200D1013300F014F8C943404277
:1049000000D1013100BDC943404200D10131DB4338
:10491000524200D1013300F005F8DB43524200D18E
:10492000013300BD002923D1002B18D1002A0CD05F
:10493000BC460D4F38667A6600210023FFE7FFE78B
:10494000FFE77A6F386F67467047002801D0074845
:10495000010000B504F010FC0022002300BD02009D
:104960000B00002000217047000000D0FFFFFFFF78
:10497000002B00D0BFE0130C28D1002AE7D080B470
:10498000114F39667A66FFE7FFE730B4040C7B6F9E
:10499000396F1B0423433B667A66FFE7FFE7FFE7B7
:1049A000C04684B27B6F3D6F1B0423433B667A662F
:1049B000FFE7FFE7C04600232C042D0C7A6F386F09
:1049C00000196941B0BC7047000000D0F0B59446B2
:1049D0000025140E01D112020835140F01D1120165
:1049E0000435940F01D192000235D40F01D1520049
:1049F0000135D40B0134254F7C66254C3C660E0CEA
:104A000093B2FFE7FFE7FFE73C6F6643360C77039F
:104A1000BE467343DF0B5B04C01AB941130C7343EA
:104A2000DB18C91ACE086643360CB64493B27343FA
:104A30001F0F1B01C01AB941130C73431F0B1B0539
:104A4000C01AB941860D8F023E436643360C092DCC
:104A500024DB520A7243801A7703460A6643360CF7
:104A600016235B1BDE40DF40BF1964466643821B92
:104A70007046043506330100D940A840C01900D360
:104A80000131A24206D20023F0BD0000000000D098
:104A9000FFFFFFFF121B0130F3D3F1E709277F1B54
:104AA000FE406446A2B27243801A00D20139220C41
:104AB0007243130C1204821A99410B00704604359C
:104AC00013370100F940A840801900D30131002BB1
:104AD00002D1A2420AD2F0BD013000D30131121B33
:104AE000FAD2013BF8D1A24200D2F0BD013000D38E
:104AF0000131121BF7E7F0B51C0C00D080E00CB4BC
:104B000000251C0A04D11B02160E3343120208357D
:104B10001C0B04D11B01160F3343120104359C0BEF
:104B200004D19B00960F334392000235DC0B02D177
:104B300092185B4101351C00971864410134464FBF
:104B40007C66464C3C660E0CFFE7FFE7FFE7C0467D
:104B50003C6F6643360C7703BE4697B27743C01B63
:104B600000D20139C01B00D201399FB27743C91B63
:104B7000C91B170C77437E04FF0B801BB941CE087D
:104B80006643360C0C2D33DBB644120B1F053A433B
:104B90001B0B97B27743C01B00D201399FB27743FA
:104BA000C91B170C77433E043F0C801BB941860D8F
:104BB0008F023E43664329277F1BFE400C3D77460C
:104BC000AF40BF1930BCA2B2ABB272437343801A7C
:104BD0009941220C7243130C1204801A994102006D
:104BE0000B000137001BA941F9D2781E0021F0BD4E
:104BF0000C277F1BFE4077467F0BAF40FF19E0E795
:104C000000245D1C07D0144F7D663966FFE7FFE77F
:104C1000FFE7FFE73C6F95B29EB265436643401BDA
:104C2000B141150C1E0C6543664336042F0C3E4300
:104C30002D04401BB141994204D202000B00200018
:104C40000021F0BD01D19042F7D3801A994101347F
:104C50009942F2D3F6E70000000000D0FFFFFFFF0B
:104C600048404140484018B41B4B5B68FC460193E8
:104C700008BD04DF174F001018B4174B1B68FC4623
:104C8000019308BD00DF214F00109446134A926F34
:104C9000920809D2624618B40F4BDB68FC460193B8
:104CA00008BD0CDFD95100100C4AF0B5146E556EDA
:104CB000576F166F6246FFF7EEFF084A1466556697
:104CC00057671667F0BD18B4034B9B68FC46019309
:104CD00008BD08DF7D50001090680220000000D061
:104CE000FFB550404240504059404B40594000E0D1
:104CF000FFB5154F4C00640D03D0BC4204D10C032A
:104D000014D80020090D09055C00640D03D0BC42D5
:104D100004D11C030AD800221B0D1B0501264B40A1
:104D200009D44B4003D58B4200D18242FFBD99424A
:104D3000FCD19042FFBD0B43DB1803431343F5D076
:104D4000C9434918FFBD0000FF07000000B5FFF789
:104D5000CFFF804100BDC04600B5FFF7C9FF01D9B4
:104D6000002000BD012000BD00B5FFF7B9FF01D94B
:104D7000002000BD012000BD00B5FFF7B1FF80415C
:104D800000BD012040054A00121804D85A0012182C
:104D900001D80020704701207047002070470000B4
:104DA0000021002805D17047C1174840401AFAD0A9
:104DB000C90713B5064B1B6898470CBC441CA2409E
:104DC0001005120B0349091B09051943114310BDB6
:104DD0007CA102201F04000010B54C00620D80234E
:104DE000D218DB00D21A5B057E2A10DD9E3A13DA58
:104DF000CC170903490819435242D14064000134D9
:104E00001532202A05DAD0400843604310BD002047
:104E100010BD0846604310BDC80FC018013810BD52
:104E200018B4044B5B6AFC46019308BD24DF895328
:104E3000001000009068022018B4044BDB6FFC46A1
:104E4000019308BD7CDF0954001000009068022027
:104E5000132370B51D78012D15D010DD1C48FFF708
:104E60006DFC1C4C01008022200000F007FC022D8C
:104E700006D01948FFF75AFC184B186070BD154C46
:104E8000174BA364F5E7164B124C23606360A360D5
:104E9000E36023616361A361E36123626362A362F0
:104EA000E36223636363A363E36323646364A364D0
:104EB000E36423656365A365E36523666366A366B0
:104EC000E36623676367A367E367A364D1E7C0462C
:104ED00053440000906802204C3300007CA1022063
:104EE000E54E001007B5604601880A0A0230DF2A45
:104EF000FAD1C9B2820804D3028840880004104362
:104F000000E00068014A5050039007BD90680220FD
:104F10000FB403BC0CBCF0B50124E407634000E00F
:104F2000F0B50C0DCF0F661E3605891B640503D343
:104F3000C943404200D30131640D03D0661CF60A18
:104F400007D0E41B00207F00791C89078912803C70
:104F500024031D0DDF0F6E1E36059B1B6D0503D34D
:104F6000DB43524200D301336D0D03D06E1CF60AB1
:104F700007D0ED1B00227F007B1C9B079B12803D0E
:104F80002D032F1B661B58D4A446202E46DA20374B
:104F90001400BC401D00BD40F24033412A4380183C
:104FA0005941CB0F05D0C943C04300226442504150
:104FB000514162464D0D28D10D0D07D100281FD05B
:104FC000241940414941013A0D0DF9D0640006D33E
:104FD000013000D30131002C01D140084000013ADA
:104FE0000BD4941CE40A04D112051144DB071944C4
:104FF000F0BDD907204B194300E0D9070020F0BDD0
:105000000029DDD1002CDBD1F0BD0132C6074008FC
:10501000CD0728434908002EE1D0D9E73C2E29DAF4
:10502000203E40371400BC4000D00124F24014431D
:105030001A00BB401C43D317ACE7AC46202F08DA5C
:1050400020360400B4400D00B540F84039412843F3
:10505000A5E73C2F0CDA203F40360400B44000D0D6
:105060000124F84004430800B1400C43C117EAE7AB
:1050700010001900002494E70000F07FF0B50C0D3B
:10508000661E3605891BE60A6405640D02D0651CA0
:10509000ED0A04D0002001210905803C2403A44628
:1050A0001C0D671E3F05DB1BE70A6405640D02D07B
:1050B000651CED0A04D0002201231B05803C24035B
:1050C0007740644497B484B296B27443070C7E432D
:1050D000150C6F4380B26843361802D301200004D8
:1050E0003F183004350C00197D41844688B29AB2CD
:1050F00050430C0C62431F0C7C438EB27E439219CA
:1051000002D301263604A4191604170C3618674179
:1051100001BC81B29AB25143040C62431B0C5C4344
:1051200080B25843121802D301200004241810043E
:10513000130C401863412D185E410020474106BC06
:1051400088B293B258430C0C6343120C544389B297
:1051500051435B1802D301210904641819041A0C85
:10516000091862416D1856410020474118BCF902E8
:10517000720D1143F0026A0D1043ED020A0D03D1C6
:105180006D1940414941013B124E9B1B7600B342D1
:105190000ED26D0007D301300026714166463543BB
:1051A00001D1400840001B05C918E4072144F0BDA7
:1051B0000BDA013306D1013004D101314F0D01D09A
:1051C0004908F2E7E1070020F0BD01363105002073
:1051D000EBE70000FF030000F0B51C0D671E3F0564
:1051E000DB1BE70A6405640D02D0661CF60A04D0D6
:1051F000002201231B05803C2403D0252D06002618
:10520000F6432E661E096E66CE0FF619B4464900A7
:105210004F0D02D07E1CF60A03D000200021403F33
:105220003F033E1BB600B444013F7F05C91B49083C
:105230002E6F013676089C02950D25437543ED13BC
:105240007543AD1301356D10F603761B0CB4CC021B
:10525000450D2C43A2B2B3B25A43270C7B43350C05
:105260006F43A4B26C431B1902D3012424043F19D9
:105270001C041D0CA4187D4124196D41009A91B2A3
:10528000ACB26143170C7C432B0C5F4392B25A4380
:10529000A41802D301221204BF182204230C5218AE
:1052A0007B41019C6C431B19520ED9010A434401F6
:1052B000A01A81B2B2B2514303145A43360C73435D
:1052C00087B27743D617D21900277E4136049B193F
:1052D0001704160C7F185E417316ED18F3010026B3
:1052E00080337541A90F06D16400690AE8055B0A9D
:1052F000184309D22FE00422944480337541A90A4F
:10530000A8059B0A184326D3404149412404009A2A
:10531000019B0D005543641B4343E41A95B286B2CA
:105320007543170C7E43030C5F4392B25A43B61881
:1053300002D301221204BF183204330C52197B41EC
:1053400052429C41002C02D40022013051414008BD
:10535000CA071043490802B06246D7079210084BAB
:10536000D218084B9A4203D212058918C919F0BD08
:105370000020002A01DC3900F0BD01331905F5E7F2
:10538000FD030000FE070000002200B5203200F0FF
:1053900004F8080000BD000000220B150AD410B567
:1053A000944600F05FF81414013400DA0021CB17A2
:1053B000144C20470020002170476244343A0CD43A
:1053C0000C2A07DA04009140904052422032D44027
:1053D000214310BDD843D94310BD203207D40C4619
:1053E0009440524220321141D040204310BD080069
:1053F000C917203203D452422032104110BD180088
:10540000190010BDBB5300104A00520D144BD21AA4
:1054100013DDFF2A1EDAD205CB0FDB071A43C300C8
:10542000400F0903490A084310435B0001D301D030
:10543000013070474308FBD2704702D0C80FC00745
:1054400070470A0312130132F8D1420F072AF5D12F
:10545000012200E0FF22C80F00028018C00570473B
:10546000800300000A0DCC0F531E1B05C91A5205FC
:1054700003D3C943404200D30131520D03D0531C22
:10548000DB0A07D0121B00206400611C8907891207
:10549000803A1203014BD21A70470000FF0300004C
:1054A00051434343C9188C46110C83B24B4310B48B
:1054B000040C614392B280B2504362431C041B0C43
:1054C000001910BC59411304120CC0185141614419
:1054D000704700004840414048400E4B5B68184709
:1054E0000C4B1B6818470C4A936F9B0802D2094B60
:1054F000DB681847F0B5146E556E576F166FFFF7DF
:10550000F6FF054A1466556657671667F0BD014BEE
:105510009B68184790690220000000D0C10FC9079E
:1055200000D54042002817D0F44603B40B4B1B684B
:10553000984706BC81409E384042803107D20B0616
:1055400007D04900490AC0051043084360470130AD
:10555000F8E7490A8902F5E7704700007CA10220BC
:10556000034BDB6FFC4618477CDF0556001000003C
:1055700090690220132310B512481C78FFF7DEF85B
:105580000100012C0AD003DD80220F4800F076F8DC
:105590000E48FFF7CBF80E4B186010BD0A4C542292
:1055A000200000F06BF80B4B6365A365E365236691
:1055B0006366A366E36623676367A367E3672362A3
:1055C000E361E5E753460000906902204C33000098
:1055D0007CA10220D955001007B5604601880A0A4F
:1055E0000230DF2AFAD1C9B2820804D30288408887
:1055F0000004104300E00068014A5050039007BDCA
:1056000090690220C30FDB0741000A0E07D0FF2A72
:1056100008D00909054A891819434007704719003D
:10562000002070470249C918FAE70000000000385E
:105630000000F07F10B5040003F042F9002804D008
:10564000034B04199C4200D810BD0248FDF73EFBF5
:10565000000004202099001010B503F03BF910BDA4
:1056600001480421014B1847D05E02204D4700102D
:10567000014B1B6818470000D05E0220014B5B689D
:1056800018470000D05E0220030010B5080011008A
:105690001B68984710BDC046F0B546464F46D646F3
:1056A000C0B5437C80460E001700002B46D0002A70
:1056B0003FDD4B1E9946244B0125002400209A46CD
:1056C0000DE04B461B5D0D3B5A425341325DDBB250
:1056D0000A2A0BD02B00013401359F421ADD002C21
:1056E000EFD14346325D1B7C0A2AF3D1002BF1D166
:1056F000A04204DA4346211A1B68301898474346F3
:1057000050461B6802219847013428002B000135C0
:105710009F42E4DC874204DD4346391A1B68301897
:105720009847F619013E33780D3B5A4253414246A1
:105730001374E0BCBA46B146A846F0BD0368110038
:1057400030009847F5E7C04690990010F0B5C6467E
:105750000B6806000C0000B5802B06D05A1C226096
:10576000E418267180BCB846F0BD0F4B1D68002DB3
:1057700016D00B1D98460D4F02E0ED68002D0FD09E
:105780002B68002BF9D03B68002B01D0AB42F4D141
:10579000280041462268FFF77FFFED68002DEFD11A
:1057A00001220023DBE7C046D8700220E870022007
:1057B000F0B557464E464546DE461C00D023E0B5C0
:1057C0001B061F68344B83B006000D00180001A9AA
:1057D00091469A4603F0E0FC8046002808D1019BE0
:1057E0007FB29F4204D0504603F0EEFC012398465E
:1057F0006B1C03D1300003F04BFB0500002C27D1BC
:10580000264F274B1C68002C18D04B46002B21D16B
:10581000244B994602E0E468002C0FD02368002B4B
:10582000F9D04B461B68002B01D0A342F3D12000D6
:105830002A003100B847E468002CEFD14346002B22
:1058400025D103B0F0BCBB46B246A946A046F0BD88
:10585000154FD6E7134B99460A239B4602E0E468AE
:10586000002CEBD02368002BF9D04B461B68002B93
:1058700001D0A342F3D12A0031002000B8475A4694
:105880006B4620001A7101A90122B847E7E750468C
:1058900003F06AFCD5E7C0466867022099560010FD
:1058A000D8700220E870022089560010F0B5CE466C
:1058B000474680B583B06B46DE1CD02330701B0694
:1058C0001C681F4B804601A91800994603F064FC30
:1058D000071E20D01B4B1C68002C28D01A4D02E05C
:1058E000E468002C0FD02368002BF9D02B68002B24
:1058F00001D0A342F4D1200001223100FFF7CCFEF9
:10590000E468002CEFD1002F11D1404603B0C0BC99
:10591000B946B046F0BD019B64B29C420BD04846EC
:1059200003F052FC074B01271C68002CD6D14846D7
:1059300003F01AFCE9E7034B1C68002CCED1E4E726
:1059400068670220D8700220E870022070B5040059
:1059500003F09EFA00230100050001222000FFF75A
:1059600027FF084B1C68002C06D06368002B05D06D
:105970009847E468002CF8D1280070BDE468002C3A
:10598000F3D1F9E7D8700220F0B5CE46474680B58E
:1059900083B06B46DE1CD02330701B061C681F4B87
:1059A000804601A91800994603F0F6FB071E20D097
:1059B0001B4B1C68002C28D01A4D02E0E468002C18
:1059C0000FD02368002BF9D02B68002B01D0A34205
:1059D000F4D1200001223100FFF756FEE468002CCC
:1059E000EFD1002F11D1404603B0C0BCB946B0463C
:1059F000F0BD019B64B29C420BD0484603F0E4FB2F
:105A0000074B01271C68002CD6D1484603F0ACFB9D
:105A1000E9E7034B1C68002CCED1E4E7686702205D
:105A2000D8700220E870022070B5040003F030FA4C
:105A300001230100050001222000FFF7B9FE084BF9
:105A40001C68002C06D06368002B05D09847E468DA
:105A5000002CF8D1280070BDE468002CF3D1F9E7E0
:105A6000D87002200A4A1368002B05D10CE01A00F6
:105A7000DB680C32002B07D09842F8D1002902D104
:105A8000C3681360C16070470029FCD01060FAE75A
:105A9000D8700220F0B54746CE46D02380B51B060D
:105AA0001F682D4BA3B004000D00180001A99846F3
:105AB00003F072FB061E07D1019B7FB29F4203D009
:105AC000404603F081FB01368422002101A8FFF744
:105AD000CFFD2B002200214801A9FEF7F7FD019B15
